{
  "contractName": "Adoption",
  "abi": [
    {
      "constant": true,
      "inputs": [
        {
          "name": "",
          "type": "uint256"
        }
      ],
      "name": "adopters",
      "outputs": [
        {
          "name": "",
          "type": "address"
        }
      ],
      "payable": false,
      "stateMutability": "view",
      "type": "function"
    },
    {
      "anonymous": false,
      "inputs": [
        {
          "indexed": false,
          "name": "adopter",
          "type": "address"
        },
        {
          "indexed": false,
          "name": "petId",
          "type": "uint256"
        }
      ],
      "name": "PetAdopted",
      "type": "event"
    },
    {
      "constant": false,
      "inputs": [
        {
          "name": "petId",
          "type": "uint256"
        }
      ],
      "name": "adopt",
      "outputs": [
        {
          "name": "",
          "type": "uint256"
        }
      ],
      "payable": false,
      "stateMutability": "nonpayable",
      "type": "function"
    },
    {
      "constant": false,
      "inputs": [
        {
          "name": "petId",
          "type": "uint256"
        }
      ],
      "name": "forceAdopt",
      "outputs": [
        {
          "name": "",
          "type": "uint256"
        }
      ],
      "payable": false,
      "stateMutability": "nonpayable",
      "type": "function"
    },
    {
      "constant": true,
      "inputs": [],
      "name": "getAdopters",
      "outputs": [
        {
          "name": "",
          "type": "address[16]"
        }
      ],
      "payable": false,
      "stateMutability": "view",
      "type": "function"
    }
  ],
  "bytecode": "0x608060405234801561001057600080fd5b50610571806100206000396000f300608060405260043610610062576000357c0100000000000000000000000000000000000000000000000000000000900463ffffffff1680633de4eb171461006757806343ae80d3146100ba5780637016a940146101275780638588b2c514610168575b600080fd5b34801561007357600080fd5b5061007c6101a9565b6040518082601060200280838360005b838110156100a757808201518184015260208101905061008c565b5050505090500191505060405180910390f35b3480156100c657600080fd5b506100e56004803603810190808035906020019092919050505061022a565b604051808273ffffffffffffffffffffffffffffffffffffffff1673ffffffffffffffffffffffffffffffffffffffff16815260200191505060405180910390f35b34801561013357600080fd5b506101526004803603810190808035906020019092919050505061025f565b6040518082815260200191505060405180910390f35b34801561017457600080fd5b5061019360048036038101908080359060200190929190505050610273565b6040518082815260200191505060405180910390f35b6101b1610521565b6000601080602002604051908101604052809291908260108015610220576020028201915b8160009054906101000a900473ffffffffffffffffffffffffffffffffffffffff1673ffffffffffffffffffffffffffffffffffffffff16815260200190600101908083116101d6575b5050505050905090565b60008160108110151561023957fe5b016000915054906101000a900473ffffffffffffffffffffffffffffffffffffffff1681565b600061026c826001610287565b9050919050565b6000610280826000610287565b9050919050565b600080831015801561029a5750600f8311155b1515610334576040517f08c379a000000000000000000000000000000000000000000000000000000000815260040180806020018281038252603a8152602001807f54686520706574496420737570706c696564206973206f75747369646520746881526020017f652072657175697265642072616e6765206f66205b302d31355d00000000000081525060400191505060405180910390fd5b8115801561039f5750600073ffffffffffffffffffffffffffffffffffffffff1660008460108110151561036457fe5b0160009054906101000a900473ffffffffffffffffffffffffffffffffffffffff1673ffffffffffffffffffffffffffffffffffffffff1614155b1561045e576040517f08c379a00000000000000000000000000000000000000000000000000000000081526004018080602001828103825260548152602001807f546869732070657420686173206265656e2061646f707465642c20616e64207381526020017f696e636520737472696e6720636f6e746174656e6174696f6e2069732068617281526020017f6420492063616e2774207361792062792077686f00000000000000000000000081525060600191505060405180910390fd5b3360008460108110151561046e57fe5b0160006101000a81548173ffffffffffffffffffffffffffffffffffffffff021916908373ffffffffffffffffffffffffffffffffffffffff1602179055507f34fcbadf105a17b03e10d0cbd33a726d0946b5dd79e7ea2038b0c15ccdfd3cc83384604051808373ffffffffffffffffffffffffffffffffffffffff1673ffffffffffffffffffffffffffffffffffffffff1681526020018281526020019250505060405180910390a182905092915050565b610200604051908101604052806010906020820280388339808201915050905050905600a165627a7a723058203d7aad4251b448db2fbb6d48bbeebb1a8c5f322e6d690b3694efda3471c384ab0029",
  "source": "pragma solidity ^0.4.17;\n\ncontract Adoption {\n    address[16] public adopters; // public causes getter function to be automatically created\n    event PetAdopted(address adopter, uint petId);\n\n    function adopt(uint petId) public returns (uint) {\n        return _adopt(petId, false);\n    }\n\n    function forceAdopt(uint petId) public returns (uint) {\n        return _adopt(petId, true);\n    }\n\n    function _adopt(uint petId, bool force) private returns (uint) {\n        // Make sure the pet exists.\n        require(petId >= 0 && petId <= 15, \"The petId supplied is outside the required range of [0-15]\");\n\n         // Make sure the pet has not already bee adopted (effectively the same as the exception thrown above, but using the lower-level 'revert').\n        if(!force && adopters[petId] != address(0)) {\n            revert(\"This pet has been adopted, and since string contatenation is hard I can't say by who\");\n        }\n\n        adopters[petId] = msg.sender;\n\n        emit PetAdopted(msg.sender, petId);\n\n        return petId;\n    }\n\n    function getAdopters() public view returns (address[16]) {\n        return adopters;\n    }\n}",
  "sourcePath": "/Users/mike/work/mine/truffle-petshop/contracts/Adoption.sol",
  "compiler": {
    "name": "solc",
    "version": "0.4.24+commit.e67f0147.Emscripten.clang"
  },
  "schemaVersion": "2.0.1",
  "updatedAt": "2018-11-10T21:53:48.750Z"
}